{
  "contractName": "Auction",
  "abi": [
    {
      "inputs": [],
      "payable": false,
      "stateMutability": "nonpayable",
      "type": "constructor"
    },
    {
      "constant": false,
      "inputs": [
        {
          "internalType": "string",
          "name": "name",
          "type": "string"
        }
      ],
      "name": "createItem",
      "outputs": [
        {
          "internalType": "uint256",
          "name": "",
          "type": "uint256"
        }
      ],
      "payable": false,
      "stateMutability": "nonpayable",
      "type": "function"
    },
    {
      "constant": false,
      "inputs": [
        {
          "internalType": "uint256",
          "name": "id",
          "type": "uint256"
        },
        {
          "internalType": "address",
          "name": "to",
          "type": "address"
        }
      ],
      "name": "transferItem",
      "outputs": [],
      "payable": false,
      "stateMutability": "nonpayable",
      "type": "function"
    },
    {
      "constant": false,
      "inputs": [
        {
          "internalType": "uint256",
          "name": "id",
          "type": "uint256"
        },
        {
          "internalType": "uint256",
          "name": "startBid",
          "type": "uint256"
        }
      ],
      "name": "startAuction",
      "outputs": [],
      "payable": true,
      "stateMutability": "payable",
      "type": "function"
    },
    {
      "constant": false,
      "inputs": [
        {
          "internalType": "uint256",
          "name": "id",
          "type": "uint256"
        },
        {
          "internalType": "uint256",
          "name": "bid",
          "type": "uint256"
        }
      ],
      "name": "placeBid",
      "outputs": [],
      "payable": true,
      "stateMutability": "payable",
      "type": "function"
    },
    {
      "constant": false,
      "inputs": [
        {
          "internalType": "uint256",
          "name": "id",
          "type": "uint256"
        }
      ],
      "name": "endAuction",
      "outputs": [],
      "payable": false,
      "stateMutability": "nonpayable",
      "type": "function"
    }
  ],
  "bytecode": "0x6080604052600060015566038d7ea4c6800060025534801561002057600080fd5b50336000806101000a81548173ffffffffffffffffffffffffffffffffffffffff021916908373ffffffffffffffffffffffffffffffffffffffff160217905550610d3c806100706000396000f3fe60806040526004361061004a5760003560e01c80633d54eebb1461004f5780634fee13fc1461012b57806357c90de514610163578063a42291011461019b578063b9a2de3a146101f6575b600080fd5b34801561005b57600080fd5b506101156004803603602081101561007257600080fd5b810190808035906020019064010000000081111561008f57600080fd5b8201836020820111156100a157600080fd5b803590602001918460018302840111640100000000831117156100c357600080fd5b91908080601f016020809104026020016040519081016040528093929190818152602001838380828437600081840152601f19601f820116905080830192505050505050509192919290505050610231565b6040518082815260200191505060405180910390f35b6101616004803603604081101561014157600080fd5b810190808035906020019092919080359060200190929190505050610331565b005b6101996004803603604081101561017957600080fd5b81019080803590602001909291908035906020019092919050505061047b565b005b3480156101a757600080fd5b506101f4600480360360408110156101be57600080fd5b8101908080359060200190929190803573ffffffffffffffffffffffffffffffffffffffff1690602001909291905050506105bb565b005b34801561020257600080fd5b5061022f6004803603602081101561021957600080fd5b8101908080359060200190929190505050610712565b005b600061023b610a0c565b60405180606001604052806001548152602001848152602001600015158152509050600360003373ffffffffffffffffffffffffffffffffffffffff1673ffffffffffffffffffffffffffffffffffffffff16815260200190815260200160002081908060018154018082558091505090600182039060005260206000209060030201600090919290919091506000820151816000015560208201518160010190805190602001906102ee929190610a2f565b5060408201518160020160006101000a81548160ff0219169083151502179055505050506001600081548092919060010191905055506001805403915050919050565b80341461033d57600080fd5b600061034983336107b2565b90506000811161035857600080fd5b80806001900391505060025482101561037057600080fd5b6001600360003373ffffffffffffffffffffffffffffffffffffffff1673ffffffffffffffffffffffffffffffffffffffff16815260200190815260200160002082815481106103bc57fe5b906000526020600020906003020160020160006101000a81548160ff02191690831515021790555060405180604001604052808381526020013373ffffffffffffffffffffffffffffffffffffffff16815250600460008581526020019081526020016000206000820151816000015560208201518160010160006101000a81548173ffffffffffffffffffffffffffffffffffffffff021916908373ffffffffffffffffffffffffffffffffffffffff160217905550905050505050565b80341461048757600080fd5b60025481101561049657600080fd5b61049e610aaf565b60046000848152602001908152602001600020604051806040016040529081600082015481526020016001820160009054906101000a900473ffffffffffffffffffffffffffffffffffffffff1673ffffffffffffffffffffffffffffffffffffffff1673ffffffffffffffffffffffffffffffffffffffff1681525050905060405180604001604052808383600001510181526020013373ffffffffffffffffffffffffffffffffffffffff16815250600460008581526020019081526020016000206000820151816000015560208201518160010160006101000a81548173ffffffffffffffffffffffffffffffffffffffff021916908373ffffffffffffffffffffffffffffffffffffffff160217905550905050505050565b60006105c783336107b2565b9050600081116105d657600080fd5b808060019003915050600360008373ffffffffffffffffffffffffffffffffffffffff1673ffffffffffffffffffffffffffffffffffffffff168152602001908152602001600020600360003373ffffffffffffffffffffffffffffffffffffffff1673ffffffffffffffffffffffffffffffffffffffff168152602001908152602001600020828154811061066857fe5b90600052602060002090600302019080600181540180825580915050906001820390600052602060002090600302016000909192909190915060008201548160000155600182018160010190805460018160011615610100020316600290046106d2929190610adf565b506002820160009054906101000a900460ff168160020160006101000a81548160ff02191690831515021790555050505061070d8133610854565b505050565b3373ffffffffffffffffffffffffffffffffffffffff166108fc60046000848152602001908152602001600020600001549081150290604051600060405180830381858888f1935050505015801561076e573d6000803e3d6000fd5b506107af816004600084815260200190815260200160002060010160009054906101000a900473ffffffffffffffffffffffffffffffffffffffff166105bb565b50565b600080600360008473ffffffffffffffffffffffffffffffffffffffff1673ffffffffffffffffffffffffffffffffffffffff168152602001908152602001600020905060008090505b8180549050811015610847578482828154811061081557fe5b906000526020600020906003020160000154141561083a57600181019250505061084e565b80806001019150506107fc565b5060009150505b92915050565b6000600360008373ffffffffffffffffffffffffffffffffffffffff1673ffffffffffffffffffffffffffffffffffffffff168152602001908152602001600020905060008390505b6001828054905003811015610952578160018201815481106108bb57fe5b90600052602060002090600302018282815481106108d557fe5b90600052602060002090600302016000820154816000015560018201816001019080546001816001161561010002031660029004610914929190610adf565b506002820160009054906101000a900460ff168160020160006101000a81548160ff021916908315150217905550905050808060010191505061089d565b508060018280549050038154811061096657fe5b906000526020600020906003020160008082016000905560018201600061098d9190610b66565b6002820160006101000a81549060ff02191690555050808054809190600190036109b79190610bae565b5080600360008473ffffffffffffffffffffffffffffffffffffffff1673ffffffffffffffffffffffffffffffffffffffff168152602001908152602001600020908054610a06929190610be0565b50505050565b604051806060016040528060008152602001606081526020016000151581525090565b828054600181600116156101000203166002900490600052602060002090601f016020900481019282601f10610a7057805160ff1916838001178555610a9e565b82800160010185558215610a9e579182015b82811115610a9d578251825591602001919060010190610a82565b5b509050610aab9190610c97565b5090565b604051806040016040528060008152602001600073ffffffffffffffffffffffffffffffffffffffff1681525090565b828054600181600116156101000203166002900490600052602060002090601f016020900481019282601f10610b185780548555610b55565b82800160010185558215610b5557600052602060002091601f016020900482015b82811115610b54578254825591600101919060010190610b39565b5b509050610b629190610c97565b5090565b50805460018160011615610100020316600290046000825580601f10610b8c5750610bab565b601f016020900490600052602060002090810190610baa9190610c97565b5b50565b815481835581811115610bdb57600302816003028360005260206000209182019101610bda9190610cbc565b5b505050565b828054828255906000526020600020906003028101928215610c865760005260206000209160030282015b82811115610c855782826000820154816000015560018201816001019080546001816001161561010002031660029004610c46929190610adf565b506002820160009054906101000a900460ff168160020160006101000a81548160ff021916908315150217905550505091600301919060030190610c0b565b5b509050610c939190610cbc565b5090565b610cb991905b80821115610cb5576000816000905550600101610c9d565b5090565b90565b610d0491905b80821115610d0057600080820160009055600182016000610ce39190610b66565b6002820160006101000a81549060ff021916905550600301610cc2565b5090565b9056fea265627a7a72315820115fbb37007ae5063f2d8442dc8d47686bc805ba1b685afebb1797a4b759d63064736f6c63430005100032",
  "source": "pragma solidity ^0.5.0;\r\n\r\ncontract Auction {\r\n    struct Item{\r\n        uint id;\r\n        string name;\r\n        bool onSale;\r\n    }\r\n    \r\n    struct Bid {\r\n        uint amount;\r\n        address payable bider;\r\n    }\r\n    \r\n    address payable owner;\r\n    uint ids = 0;\r\n    uint min_bid_amount = 1000000000000000;\r\n    mapping(address => Item[]) items;\r\n    mapping(uint => Bid) auctions;\r\n    \r\n    constructor () public{\r\n        owner = msg.sender;\r\n    }\r\n    \r\n    function createItem(string memory name) public returns(uint){\r\n        Item memory item = Item(ids, name, false);\r\n        items[msg.sender].push(item);\r\n        ids ++;\r\n        return ids -1;\r\n    }\r\n    \r\n    function transferItem(uint id, address to) public{\r\n        uint index = own(id, msg.sender);\r\n        require(index > 0);\r\n        index --;\r\n        items[to].push(items[msg.sender][index]);\r\n        remove(index, msg.sender);\r\n    }\r\n    \r\n    function startAuction(uint id, uint startBid) public payable{\r\n        require(msg.value == startBid);\r\n        uint index = own(id, msg.sender);\r\n        require(index > 0);\r\n        index --;\r\n        require(startBid >= min_bid_amount);\r\n        items[msg.sender][index].onSale = true;\r\n        auctions[id] = Bid(startBid, msg.sender);\r\n    }\r\n    \r\n    function placeBid(uint id, uint bid) public payable{\r\n        require(msg.value == bid);\r\n        require(bid >= min_bid_amount);\r\n        Bid memory tmp = auctions[id];\r\n        auctions[id] = Bid(tmp.amount + bid, msg.sender);\r\n    }\r\n    \r\n    function endAuction(uint id) public {\r\n        msg.sender.transfer(auctions[id].amount);\r\n        transferItem(id, auctions[id].bider);\r\n    }\r\n    \r\n    function remove(uint index, address tmp) private{\r\n        Item[] storage array = items[tmp];\r\n\r\n        for (uint i = index; i<array.length-1; i++){\r\n            array[i] = array[i+1];\r\n        }\r\n        delete array[array.length-1];\r\n        array.length--;\r\n        items[tmp] = array;\r\n    }\r\n    \r\n    function own(uint id, address check) private view returns(uint){\r\n        Item[] storage array = items[check];\r\n        for (uint j = 0; j < array.length; j++) {\r\n            if (array[j].id == id) {\r\n                return j + 1;\r\n            }\r\n        }\r\n        return 0;\r\n    }\r\n}",
  "sourcePath": "C:/Lab3/contracts/Lab3.sol",
  "compiler": {
    "name": "solc",
    "version": "0.5.16+commit.9c3226ce.Emscripten.clang"
  },
  "schemaVersion": "3.3.4",
  "updatedAt": "2021-03-30T13:38:52.552Z",
  "devdoc": {
    "methods": {}
  },
  "userdoc": {
    "methods": {}
  }
}